:10000000ACC00000C6C00000C4C00000C2C00000F8
:10001000C0C00000BEC00000BCC00000BAC00000EC
:10002000B8C00000B6C0000076C60000B2C0000034
:10003000B0C00000AEC00000ACC00000AAC000000C
:10004000A8C00000A6C00000A4C00000A2C000001C
:100050004EC100009EC000009CC000009AC000007D
:1000600098C0000096C0000094C0000092C000003C
:1000700090C000008EC000008CC000008AC000004C
:1000800088C0000086C0000084C0000082C000005C
:1000900080C000007EC000007CC000007AC000006C
:1000A00078C0000076C0000074C000001E0353003A
:1000B0004D004900570020004B004F004E005400F7
:1000C00052004F004C004500520000000E034B0050
:1000D00020005300490054004100000004030904BB
:1000E00009022900010100C03209040000020301D5
:1000F0000100092111010001223F000705810308C9
:1001000000050705020308000512011001000000A8
:1001100008EB03422001000102000105010906A1CC
:1001200001050719E029E7150025017501950881EA
:1001300002950175088101050819012905950575C4
:1001400001910295017503910115002565050719B7
:10015000002965950675088100C011241FBECFEFE8
:10016000DAE0DEBFCDBF11E0A0E0B1E0E4EDF1E107
:1001700002C005900D92A830B107D9F721E0A8E0A0
:10018000B1E001C01D92A632B207E1F785D30C940D
:10019000E80836CF81E080930601089542E061ECE3
:1001A00081E0D6D442E060EC82E0D2D4E2EEF0E02E
:1001B0008081846080830895809117019091180157
:1001C000009729F0019790931801809317010895E3
:1001D00080910E01811101C0479A0895F9CF809155
:1001E0000E01811101C0479808950F931F93CF937B
:1001F000DF938C01C0E0D0E0C017D107B4F4E8DF92
:100200002FEF89E698E1215080409040E1F700C04F
:100210000000E5DF2FEF89E698E121508040904013
:10022000E1F700C000002196E7CFDF91CF911F9149
:100230000F9108950F931F93CF93DF938C01C0E02C
:10024000D0E0C017D107B4F4C3DF2FEF83EC99E0FF
:10025000215080409040E1F700C00000C0DF2FEF48
:1002600083EC99E0215080409040E1F700C000000D
:100270002196E7CFDF91CF911F910F91089584B719
:10028000877F84BF0FB6F894A8958091600088613D
:1002900080936000109260000FBE90E080E80FB67F
:1002A000F89480936100909361000FBE3F9A50983C
:1002B000519852985398AAE7B0E087E08C93ECE706
:1002C000F0E080818F7780838081806480838C914F
:1002D00080688C93E1E8F0E0808181608083EFE6C4
:1002E000F0E080818160808373DFF8D478CF1F9243
:1002F0000F920FB60F9211242F938F939F9380919B
:100300000C0190910D010896803727E1920728F49F
:1003100090930D0180930C0104C010920D01109276
:100320000C019F918F912F910F900FBE0F901F90F6
:10033000189590917A009F7790937A0090917C0025
:10034000987F90937C0090917C008770982B90937D
:100350007C0080917A00806880937A0080917A0096
:10036000806480937A0080917A0084FFFCCF809132
:100370007A00806180937A0080917A008064809313
:100380007A0080917A0084FFFCCF80917A008061AE
:1003900080937A0080917800909179000895EF928F
:1003A000FF920F931F93CF938C0188E0F801119275
:1003B0008A95E9F780910801629926C08F5F8131A3
:1003C00018F4809308012CC080E18093080180918B
:1003D0000901811125C0FCDE81E080930E0180912E
:1003E0000A0190910B010196843091052CF49093B1
:1003F0000B0180930A0104C010920B0110920A01B4
:1004000081E0809309010CC0882351F081508093D2
:100410000801811105C010920E01E1DE1092090160
:1004200080910A0190910B010097F9F44A9B05C055
:100430008DE0F8018283C1E001C0C0E04B9B06C0A3
:10044000F801EC0FF11D8CE08283CF5F499B06C061
:10045000F801EC0FF11D8EE08283CF5F489B8DC0C9
:10046000F801EC0FF11D8FE084C08130910549F552
:1004700080910C0190910D01883E934010F4A8DE0C
:1004800001C0ADDE4A9B05C080E5F8018283C1E072
:1004900001C0C0E04B9B06C0F801EC0FF11D82E5E6
:1004A0008283CF5F499B06C0F801EC0FF11D81E507
:1004B0008283CF5F489B61C0F801EC0FF11D8FE490
:1004C00058C08230910559F580910C0190910D0131
:1004D000883EF3E09F0710F47BDE06C0895B9B40FB
:1004E000873E9340C8F37BDE4A9B05C084E1F80158
:1004F0008283C1E001C0C0E04B9B04C0F801808151
:1005000082608083499B04C0F80180818160808380
:10051000489B33C0F801EC0FF11D88E02AC0039717
:1005200059F580910C0190910D01883B9B4010F48E
:100530004FDE01C054DE4A9B05C086E0F80182838D
:10054000C1E001C0C0E04B9B06C0F801EC0FF11DFB
:100550008AE08283CF5F499B06C0F801EC0FF11D52
:100560008CE28283CF5F489B08C0F801EC0FF11D3D
:1005700089E18283CF5F01C0C0E086E0DADE7C01E2
:1005800087E0D7DEF701F695E795209102013091DB
:10059000030136952795E20FF31FF0930301E093D3
:1005A00002019695879520910001309101013695C1
:1005B0002795280F391F3093010120930001809166
:1005C0000C0190910D016DE770E0E1D56F5F6095D2
:1005D0006170E038F10528F4F801EC0FF11D87E0B7
:1005E0001BC0E03481E0F80750F4662361F0D801C5
:1005F000AC0FB11D87E012968C93CF5F04C0E13839
:1006000083E0F80728F4E13CF24040F0662331F043
:10061000F801EC0FF11D84E08283CF5F20383105B3
:1006200028F4F801EC0FF11D8AE11AC02034E1E052
:100630003E0748F4662359F0F801EC0FF11D8AE1FA
:100640008283CF5F04C02138F3E03F0728F4213CC8
:10065000324038F0662329F0F801EC0FF11D86E1F5
:100660008283CF911F910F91FF90EF900895CF93C8
:10067000DF93CDB7DEB728970FB6F894DEBF0FBE75
:10068000CDBF80911F01833009F442C030F4813026
:1006900071F0823009F478C090C08A3009F45BC0F0
:1006A0008B3009F442C0893009F087C018C08091AE
:1006B0001E01813A09F081C0CE01019670DE809161
:1006C000E800877F8093E80068E070E0CE01019643
:1006D0007BD18091E8008B778093E8006EC0809199
:1006E0001E01813209F069C08091E800877F809304
:1006F000E8008091E80082FD05C080911D01811114
:10070000F8CF5BC08091F1008091E8008B7752C0F8
:1007100080911E01813A09F050C08091E800877FE6
:100720008093E8008091060140C080911E018132D3
:1007300009F043C08091E800877F8093E8003DD2B4
:1007400081E02091200130912101232B09F480E0E8
:100750008093060132C080911E01813271F5809133
:10076000E800877F8093E80028D280912001909153
:100770002101882736E0969587953A95E1F7909381
:1007800005018093040119C080911E01813AA9F4EA
:100790008091E800877F8093E80080910401909128
:1007A000050196958795969587958093F1008091A0
:1007B000E8008E778093E80000D228960FB6F89470
:1007C000DEBF0FBECDBFDF91CF910895CF93DF93F2
:1007D000CDB7DEB728970FB6F894DEBF0FBECDBFFA
:1007E000CE010196DCDD8091040190910501009716
:1007F00061F02091170130911801232B31F490936F
:1008000018018093170121E00CC048E050E0BE01C0
:100810006F5F7F4F8FE091E0CED421E0892B09F408
:1008200020E081E08093E9008091E80085FF17C017
:100830002223A9F088E0FE013196AFE0B1E00190FB
:100840000D928A95E1F740E050E068E070E0CE015B
:10085000019670D08091E8008E778093E80028960A
:100860000FB6F894DEBF0FBECDBFDF91CF910895D4
:1008700082E08093E9008091E80082FF05C08091CA
:10088000E8008B778093E800089580911D01843003
:1008900011F49CDFEDCF0895F2DC81E090E0A5DC5F
:1008A00084E090E0C7DC7894F0DF57D4FDCF292FA7
:1008B000332723303105E1F05CF42130310599F024
:1008C0002230310579F589E290E020EE30E02EC04B
:1008D0002132310511F12232310521F58FE390E00B
:1008E0002BE131E023C082E190E029E031E01EC03D
:1008F00099278130910541F08230910541F0892B93
:1009000089F4ECEDF0E005C0ECECF0E002C0ECEABC
:10091000F0E0849190E09F0109C089E090E022EF2F
:1009200030E004C080E090E020E030E0FA01318364
:1009300020830895CF92DF92EF92FF920F931F933F
:10094000CF93DF93EC018B017A0156D1811133C033
:10095000E114F10439F0F70180819181081B190B32
:10096000C80FD91FC12CD12C0115110519F1809187
:10097000E80085FD16C08091E8008E778093E8003E
:10098000ECD3E114F10449F0F70180819181C80EA4
:10099000D91ED182C08285E00EC02ED1882321F3DA
:1009A0000AC089918093F10001501109FFEFCF1A1D
:1009B000DF0ADACF80E0DF91CF911F910F91FF9096
:1009C000EF90DF90CF900895209124013091250180
:1009D0002617370748F06115710539F42091E800B2
:1009E0002E772093E80001C0B90140E06115710540
:1009F000A9F120911D01222309F443C0253009F4F7
:100A000042C02091E80023FD40C02091E80022FD73
:100A100032C02091E80020FFE9CF4091F3002091FF
:100A2000F20030E0342BFC01CF016115710559F063
:100A30002830310540F481918093F10061507109B3
:100A40002F5F3F4FF1CF41E02830310509F040E002
:100A50002091E8002E772093E800C8CF4111C9CF3C
:100A60000AC080911D01882361F0853061F080917A
:100A7000E80083FD0AC08091E80082FFF2CF80E0A9
:100A8000089582E0089583E0089581E0089520911B
:100A90002401309125012617370748F061157105AB
:100AA00039F42091E8002E772093E80001C0B901C5
:100AB000FC0120E06115710591F180911D018823F1
:100AC00009F440C0853009F43FC08091E80083FDFF
:100AD0003DC08091E80082FD2FC08091E80080FF3A
:100AE000E9CF2091F3008091F20090E0922B611504
:100AF000710559F08830910540F424912093F1005C
:100B00003196615071090196F2CF21E0089709F002
:100B100020E08091E8008E778093E800CBCF211110
:100B2000CCCF0AC080911D01882361F0853061F02F
:100B30008091E80083FD0AC08091E80082FFF2CF37
:100B400080E0089582E0089583E0089581E00895AB
:100B5000982F973058F59093E900981739F07091D5
:100B6000EC002091ED005091F00003C0242F762F6F
:100B700050E021FF19C03091EB003E7F3093EB0035
:100B80003091ED003D7F3093ED003091EB0031600E
:100B90003093EB007093EC002093ED005093F00045
:100BA0002091EE0027FF07C09F5FD3CF8F70809307
:100BB000E90081E0089580E0089580911E0187FF9B
:100BC00011C08091E80082FD05C080911D01811156
:100BD000F8CF11C08091E8008B770BC080911D0188
:100BE000882349F08091E80080FFF8CF8091E800E9
:100BF0008E778093E80008952091E4003091E5001D
:100C000095E64091EC00842F817040FF22C08091D6
:100C1000E80080FD1CC080911D01882391F0853083
:100C200091F08091EB0085FD10C04091E40050915F
:100C3000E5004217530729F39A01915011F784E018
:100C4000089582E0089583E0089581E0089580E0AA
:100C500008954091E80042FFDECF08950F931F935F
:100C6000CF93DF934BD052D0C8EDD0E088818F77FF
:100C7000888388818068888388818F7D888319BC78
:100C800010921D011092190110921B0110921A016D
:100C900000EE10E0F80180818B7F80838881816085
:100CA000888342E060E080E053DFE1EEF0E08081A5
:100CB0008E7F8083E2EEF0E080818160808380819E
:100CC00088608083F80180818E7F80838881806145
:100CD0008883DF91CF911F910F910895E8EDF0E0A7
:100CE00080818F7E8083E7EDF0E08081816080836A
:100CF00084E082BF81E080931C01B0CFE8EDF0E09A
:100D000080818E7F80831092E20008951092DA0035
:100D10001092E10008951F920F920FB60F921124C6
:100D20002F933F934F935F936F937F938F939F93F3
:100D3000AF93BF93EF93FF938091E10082FF0AC0CE
:100D40008091E20082FF06C08091E1008B7F80935A
:100D5000E10032DA8091DA0080FF1DC08091D80076
:100D600080FF19C08091DA008E7F8093DA00809135
:100D7000D90080FF0CC080E189BD82E189BD09B442
:100D800000FEFDCF81E080931D0104DA04C019BC90
:100D900010921D0123DA8091E10080FF18C080913C
:100DA000E20080FF14C08091E2008E7F8093E20019
:100DB0008091E20080618093E2008091D80080629F
:100DC0008093D80019BC85E080931D01C5D1809126
:100DD000E10084FF2FC08091E20084FF2BC080E1FE
:100DE00089BD82E189BD09B400FEFDCF8091D800A4
:100DF0008F7D8093D8008091E1008F7E8093E10009
:100E00008091E2008F7E8093E2008091E200816019
:100E10008093E20080911901882311F084E007C0DB
:100E20008091E30087FD02C081E001C083E08093F0
:100E30001D0192D18091E10083FF22C08091E200E8
:100E400083FF1EC08091E100877F8093E10082E0F4
:100E500080931D01109219018091E1008E7F809393
:100E6000E1008091E2008E7F8093E2008091E200B9
:100E700080618093E20042E060E080E069DE6CD156
:100E8000FF91EF91BF91AF919F918F917F916F9162
:100E90005F914F913F912F910F900FBE0F901F9038
:100EA00018951F93CF93DF93CDB7DEB7AA970FB6F0
:100EB000F894DEBF0FBECDBFEEE1F1E088E08E0F0B
:100EC0009091F10091938E13FBCFD1DB8091E800DC
:100ED00083FF2AC180911E0190911F01953009F472
:100EE00083C030F49130A9F168F0933091F11CC1C6
:100EF000983009F4EEC0993009F4FAC0963009F040
:100F000013C194C0803821F0823809F00DC108C0A7
:100F100080911A0190911B01992389F082600FC082
:100F2000809122018F70873008F0FEC08093E90025
:100F30008091EB0085FB882780F91092E900909161
:100F4000E800977F9093E8008093F1001092F10001
:100F5000CBC0282F2D7F09F0E7C0882319F08230FD
:100F600061F0E2C080912001813009F0DDC0933052
:100F700009F080E080931B012EC080912001811137
:100F80002AC0809122018F702FEF280F263008F0A1
:100F9000CBC08093E9002091EB0020FF1CC0933070
:100FA00021F48091EB00806214C09091EB0090617D
:100FB0009093EB0021E030E0A90102C0440F551FDF
:100FC0008A95E2F74093EA001092EA008091EB00E4
:100FD00088608093EB001092E9008091E800877FA1
:100FE0008093E800EADDA0C081119EC0109120012D
:100FF0001F778091E3008078812B8093E3008091BC
:10100000E800877F8093E800D8DD8091E80080FFCA
:10101000FCCF8091E30080688093E300111102C04F
:1010200082E001C083E080931D017EC08058823041
:1010300008F07AC080912001909121018C3D53E00D
:10104000950771F583E08A838AE289834FB7F89424
:10105000DE01139620E03EE051E2E32FF0E05093F2
:101060005700E49120FF03C0E295EF703F5FEF70FF
:101070008E2F90E0EA3010F0C79601C0C0968D9395
:101080009D932F5F243149F74FBF8091E800877F00
:101090008093E8006AE270E0CE01019695DC13C00F
:1010A0006091220170912301AE014F5F5F4FFFDB22
:1010B000BC01892BC9F19091E800977F9093E800DB
:1010C00089819A81E4DC8091E8008B778093E80045
:1010D0002BC0803849F58091E800877F8093E80035
:1010E000809119018093F1008091E8008E7778CF8C
:1010F00081111AC0909120019230B0F48091E800E3
:10110000877F8093E8009093190157DD8091190142
:10111000811106C08091E30087FD02C081E001C01B
:1011200084E080931D013AD88091E80083FF0AC0D3
:101130008091E800877F8093E8008091EB008062D7
:101140008093EB00AA960FB6F894DEBF0FBECDBF1A
:10115000DF91CF911F9108950895CF9380911D0144
:10116000882399F0C091E900CF709091EC00892F0D
:10117000817090FD80E8C82B1092E9008091E80012
:1011800083FD8FDECF70C093E900CF910895AA1B35
:10119000BB1B51E107C0AA1FBB1FA617B70710F062
:1011A000A61BB70B881F991F5A95A9F78095909594
:1011B000BC01CD010895FB01DC0104C08D910190BB
:1011C000801921F441505040C8F7881B990B0895AD
:0411D000F894FFCFC1
:0811D40000020002F401010019
:00000001FF
